:100000000C9434000C9451000C9451000C94510049
:100010000C9451000C9451000C9451000C9451001C
:100020000C9451000C9451000C9451000C94CC0E83
:100030000C9451000C9451000C9451000C945100FC
:100040000C9451000C9451000C9451000C945100EC
:100050000C9451000C9451000C9451000C945100DC
:100060000C9451000C94510011241FBECFEFD8E026
:10007000DEBFCDBF11E0A0E0B1E0E2EDF2E202C0F0
:1000800005900D92AA34B107D9F717E0AAE4B1E0C0
:1000900001C01D92A53CB107E1F70E94CC100C9461
:1000A00067110C940000CF93DF9300D000D0CDB740
:1000B000DEB719821A821B821C820BC089819A8149
:1000C000AB81BC810196A11DB11D89839A83AB834D
:1000D000BC8389819A81AB81BC8180319742A10523
:1000E000B10560F3E6CFCF93DF9300D000D0CDB75A
:1000F000DEB78FEF84B92FEF15B819821A821B82F1
:100100001C820BC089819A81AB81BC810196A11DA3
:10011000B11D89839A83AB83BC8389819A81AB812A
:10012000BC8180319742A105B10560F325B91982E0
:100130001A821B821C820BC089819A81AB81BC818F
:100140000196A11DB11D89839A83AB83BC838981EC
:100150009A81AB81BC8180319742A105B10560F3E2
:10016000CBCF0C94010C8FEF8093000184B9809168
:10017000000185B90895CF93DF9300D0CDB7DEB7E6
:10018000883008F521E030E001C0220F8A95EAF7B7
:1001900029836A830E9431046A8129818091000148
:1001A000613029F4209528232093000103C0822B7D
:1001B000809300018091000185B90F900F90DF912D
:1001C000CF910C9415050F900F90DF91CF9108956A
:1001D000CF938830F8F421E030E001C0220F8A95F7
:1001E000EAF7C22F0E943104809100018C2339F07C
:1001F00080910001C095C823C093000105C0809183
:1002000000018C2B809300018091000185B9CF9172
:100210000C941505CF910895F5E00F2EF6E01F2EF2
:10022000F7E02F2EF8E03F2EF9E04F2EFAE05F2E98
:10023000FBE06F2EFCE07F2EFDE08F2EFEE09F2E78
:10024000FFE0AF2EF0E1BF2EF1E1CF2EF2E1DF2E85
:10025000F3E1EF2EF4E1FF2E05E116E127E138E1AD
:1002600049E15AE16BE17CE18DE19EE1AFE1B0E271
:10027000E1E2F5E0F01100924A01F6E0F11100929E
:100280004A01F7E0F21100924A01F8E0F3110092FE
:100290004A01F9E0F41100924A01FAE0F5110092E6
:1002A0004A01FBE0F61100924A01FCE0F7110092CE
:1002B0004A01FDE0F81100924A01FEE0F9110092B6
:1002C0004A01FFE0FA1100924A01F0E1FB110092AD
:1002D0004A01F1E1FC1100924A01F2E1FD110092A4
:1002E0004A01F3E1FE1100924A01F4E1FF1100928C
:1002F0004A01F5E1F01300924A01F6E1F113009290
:100300004A01F7E1F21300924A01F8E1F313009277
:100310004A01F9E1F41300924A01FAE1F51300925F
:100320004A01FBE1F61300924A01FCE1F713009247
:100330004A01FDE1F81300924A01FEE1F91300922F
:100340004A01FFE1FA1300924A01F0E2FB13009226
:100350004A01F1E2FE1300924A015ECFF1E00F2E56
:10036000F2E01F2EF3E02F2EF4E03F2EF5E04F2EAB
:10037000F6E05F2EF7E06F2EF8E07F2EF9E08F2E8B
:10038000FAE09F2EFBE0AF2EFCE0BF2EFDE0CF2E6B
:10039000FEE0DF2EFFE0EF2EF0E1FF2E01E112E1A3
:1003A00023E134E145E156E167E178E189E19AE151
:1003B000ABE1BCE1EDE1F1E0F01100924A01F2E0C5
:1003C000F11100924A01F3E0F21100924A01F4E0C7
:1003D000F31100924A01F5E0F41100924A01F6E0AF
:1003E000F51100924A01F7E0F61100924A01F8E097
:1003F000F71100924A01F9E0F81100924A01FAE07F
:10040000F91100924A01FBE0FA1100924A01FCE066
:10041000FB1100924A01FDE0FC1100924A01FEE04E
:10042000FD1100924A01FFE0FE1100924A01F0E145
:10043000FF1100924A01F1E1F01300924A01F2E14A
:10044000F11300924A01F3E1F21300924A01F4E140
:10045000F31300924A01F5E1F41300924A01F6E128
:10046000F51300924A01F7E1F61300924A01F8E110
:10047000F71300924A01F9E1F81300924A01FAE1F8
:10048000F91300924A01FBE1FA1300924A01FCE1E0
:10049000FB1300924A01FDE1FE1300924A015ECF78
:1004A000AF92BF92CF92DF92EF92FF920F93A12C67
:1004B000B12CC12CD12CE12CF12C00E020E030E05B
:1004C00045E550E062E271E08CE091E00E94B40208
:1004D00020E030E045E550E067E271E08EEA91E02F
:1004E0000E94B4020F91FF90EF90DF90CF90BF90E9
:1004F000AF90089581E090914A01911180E00895B4
:10050000CF93DF93EC01E0914B01F0914C01938389
:100510008283809153019091540160914B017091BD
:100520004C01C817D90750F4809157019091580198
:100530006E5F7F4FDF91CF910C94EF0A809159014C
:1005400090915A016E5F7F4F0E94EF0A80910101E6
:1005500090910201C817D90720F4D0930201C093EB
:100560000101DF91CF9108953F924F925F926F9278
:100570007F928F929F92AF92BF92CF92DF92EF9233
:10058000FF920F931F93CF93DF934C01162F372EBB
:100590005A01390181E290E00E94070DEC010097B9
:1005A00009F4D5C0C114D10421F4C5010E94070D7E
:1005B0006C01D88ECF8AC114D10421F4CE010E94DF
:1005C000390DC5C0A50165EA70E0C6010E94601141
:1005D00021E0A21AB1084F88588C4A0C5B1CE12F0D
:1005E000F32D80E090E0BF0141919E01280F391F5B
:1005F000D90159964C93DB012C91222321F00196CD
:100600008830910581F718A2102F043008F013E00C
:100610001E8B6E01B2E0CB0ED11CC6010E94CA0A2D
:10062000CE010C960E94CA0AD987C88784E090E060
:10063000811B91099D878C87DB8BCA8BA301B40139
:10064000C2010E94490D99838883E114F10419F0D5
:10065000F701D183C0830FB6F8940F9280915501B2
:100660008F5F8093550180914B0190914C01892BB4
:10067000C9F5D0934C01C0934B0180915501813055
:1006800009F03FC0E12CF12C19E01E9DC0011F9D17
:10069000900D1124845A9E4F0E94BC0AFFEFEF1A5E
:1006A000FF0A24E0E216F10481F780E891E00E945D
:1006B000BC0A89E891E00E94BC0A82E991E00E94AC
:1006C000BC0A8BE991E00E94BC0A80E891E090931B
:1006D0005A018093590189E891E0909358018093E1
:1006E00057010FC08091510181110BC0E0914B0166
:1006F000F0914C018689081720F0D0934C01C093EB
:100700004B0180915B018F5F80935B018E8990919B
:100710005201981710F480935201A9E08A9FC001FA
:100720001124B601845A9E4F0E94CE0A0F900FBE2C
:1007300080915101882349F0E0914B01F0914C01E7
:100740008689801710F40E94170E81E001C08FEF98
:10075000DF91CF911F910F91FF90EF90DF90CF909D
:10076000BF90AF909F908F907F906F905F904F90D1
:100770003F9008950F931F93CF93DF930FB6F89494
:100780000F92009729F4C0914B01D0914C0101C008
:10079000EC018E010E5F1F4FC8010E94270B8C8950
:1007A0009D89892B21F0CE010C960E94270BB80160
:1007B0008BE991E00E94CE0A809156018F5F809371
:1007C000560180915B018F5F80935B010F900FBE9C
:1007D00080915101882349F080914B0190914C0107
:1007E000C817D90711F40E94170EDF91CF911F91FE
:1007F0000F910895AF92BF92CF92DF92EF92FF9246
:100800000F93A12CB12CC12CD12CE12CF12C00E0A8
:1008100020E030E045E550E06CE271E087E895E0EB
:100820000E94B402813081F4F894809351011092B7
:100830005401109253010F91FF90EF90DF90CF90F1
:10084000BF90AF900C94DC0D0F91FF90EF90DF9074
:10085000CF90BF90AF900895F894109251010C94EE
:10086000160E809150018F5F8093500108950FB64E
:10087000F8940F9220915301309154010F900FBEC4
:10088000C90108952091530130915401C90108957F
:10089000809155010895CF92DF92EF92FF920F93CE
:1008A0001F93CF93DF93809150018111A5C0809158
:1008B00053019091540101969093540180935301F8
:1008C00000915301109154010115110579F58091A2
:1008D000590190915A01209157013091580130935C
:1008E0005A012093590190935801809357018091A8
:1008F0004D018F5F80934D01E0915901F0915A01B4
:100900008081811103C08FEF9FEF0CC0E0915901EE
:10091000F0915A010580F681E02D0680F781E02DE7
:100920008281938190930201809301018091010162
:1009300090910201D12C0817190720F44EC0DD2434
:10094000D39402C089E0C82EE0915901F0915A0178
:100950008081811107C08FEF9FEF909302018093F8
:1009600001013BC0E0915901F0915A010580F681E7
:10097000E02DC681D7812A813B810217130728F415
:10098000309302012093010128C07E0182E0E80E2D
:10099000F11CC7010E94270B2C893D89232B21F0D4
:1009A000CE010C960E94270B2E898091520182174E
:1009B00010F420935201C29EC0011124B701845A41
:1009C0009E4F0E94CE0AE0914B01F0914C019E890E
:1009D0008689981708F0B3CFB7CFE0914B01F0911B
:1009E0004C01E68989E0E89FF0011124E45AFE4FAA
:1009F0008081823040F409C080914F018F5F8093E5
:100A00004F01D12C02C0DD24D39480914E01882364
:100A100011F0DD24D3948D2DDF91CF911F910F9193
:100A2000FF90EF90DF90CF900895EF92FF920F9399
:100A30001F93CF93DF930FB6F8940F9280915001DC
:100A400081508093500180915001882311F080E003
:100A500055C08091550181112BC0F9CFE0919701CC
:100A6000F0919801C681D781CE010C960E94270B88
:100A70008E010E5F1F4FC8010E94270B8E89909137
:100A80005201981710F480935201F89EC00111246E
:100A9000B801845A9E4F0E94CE0AE0914B01F0911A
:100AA0004C019E898689981738F0E0924E0104C067
:100AB00099E0F92EEE24E394809192018111CECF3A
:100AC00080914F01811111C080914E01813009F058
:100AD000BECF11C00E944B048111C0934E01809182
:100AE0004F01815080934F0101C0C1E080914F01BF
:100AF0008111F0CFE9CF0E94170E81E00F900FBE59
:100B0000DF91CF911F910F91FF90EF90089528C032
:100B10000E943104C0919B010E941505CC2301F174
:100B20000FB6F8940F92E091A001F091A101C68157
:100B3000D781CE0102960E94270B809155018150EA
:100B400080935501809156018150809356010F90FA
:100B50000FBE8F89988D0E94390DCE010E94390DEC
:100B6000809156018111D4CF80915C01823010F0C8
:100B70000E94170E0E94B100F3CF0F931F93CF93E3
:100B8000DF938C01009719F40E94170E16C00E9483
:100B90003104C0915301D0915401C00FD11F8091F5
:100BA0004B0190914C0102960E94270BCE010E94AE
:100BB00080020E941505882339F3DF91CF911F91A0
:100BC0000F9108950F931F93CF93DF938C01EB0147
:100BD0000E9431044091530150915401F801208149
:100BE0003181C20FD31F4217530728F4C217D3070E
:100BF00048F481E004C081E0C217D30720F04C170D
:100C00005D0708F080E0F801D183C083882351F0AC
:100C100080914B0190914C0102960E94270BCE01CE
:100C20000E9480020E941505811102C00E94170EC9
:100C3000DF91CF911F910F910895809150018823EA
:100C400021F081E080934E01089510924E0199E0C9
:100C500005C080915201815080935201E091520170
:100C60009E9FF0011124E45AFE4F8081882389F36E
:100C7000E091520189E0E89FF0011124E45AFE4F0F
:100C8000A181B28112960D90BC91A02DB283A18357
:100C9000CF010396A817B90731F412968D919C9154
:100CA0001397928381830180F281E02D8681978161
:100CB00090934C0180934B010895CF93DF93EB0108
:100CC00060914B0170914C01645F7F4F0E94EF0A6D
:100CD00080914B0190914C0102960E94270B8091CC
:100CE0005301909154018C0F9D1FDF91CF910C9473
:100CF00080020F931F93CF93DF93DC011596ED9144
:100D0000FC911697C681D7818E01045F1F4FC801E1
:100D10000E94270B80915001811115C08E010E5F3A
:100D20001F4FC8010E94270B8E899091520198177E
:100D300010F480935201B9E08B9FC0011124B801D7
:100D4000845A9E4F03C0B80182E991E00E94CE0A06
:100D5000E0914B01F0914C019E898689981720F013
:100D600081E080934E0101C080E0DF91CF911F911F
:100D70000F91089520914D01FC0120832091530192
:100D8000309154013283218308950FB6F8940F9265
:100D90004091530150915401F0914D01DC01EC91CF
:100DA00011962D913C911297FE1719F04217530797
:100DB000A0F4DB01ED91FC91DA01A21BB30BAE179D
:100DC000BF0758F4241B350B2E0F3F1FFB01318347
:100DD00020830E94BA0680E001C081E00F900FBE20
:100DE000089581E080934E0108951F93CF93DF9380
:100DF000EC01142F4C8D4423D1F150E0111115C09A
:100E00008C819D810E9457112C8D8C819D81820F38
:100E1000911D9D838C832A813B818217930738F132
:100E2000888199819D838C8322C08E819F810E94BD
:100E300057112C8D30E03195219531098E819F819C
:100E4000820F931F9F838E8368817981861797070E
:100E500030F48A819B81820F931F9F838E8312308F
:100E600031F48A8D882319F08A8D81508A8F8A8D7A
:100E70008F5F8A8FDF91CF911F910895CF93DF937A
:100E8000FC01CB01A081B1811097A9F0448D26818E
:100E90003781240F311D37832683C281D3812C17DC
:100EA0003D0710F0B783A6836681778150E0DF911C
:100EB000CF910C945711DF91CF9108950F931F9309
:100EC000CF93DF93EC010FB6F8940F928C010F5E75
:100ED0001F4F0CC08989882361F0C8010E947906E0
:100EE00081110E94F1068E8D81508E8F8E8D181685
:100EF0008CF38FEF8E8F0F900FBE0FB6F8940F927A
:100F00008E01085F1F4F0CC08885882361F0C801DF
:100F10000E94790681110E94F1068D8D81508D8F7E
:100F20008D8D18168CF38FEF8D8F0F900FBEDF9184
:100F3000CF911F910F910895CF93DF93EC010FB6DE
:100F4000F8940F92288139814B8D7C8DC901479F80
:100F5000800D911D11249B838A831A8E3D832C83DF
:100F600050E041505109749FC001759F900D1124AC
:100F7000820F931F9F838E838FEF8D8F8E8F6111D2
:100F80000CC08885882389F0CE0108960E947906D6
:100F9000813059F40E94170E08C0CE0108960E94B5
:100FA000BC0ACE0141960E94BC0A0F900FBE81E0A0
:100FB000DF91CF9108950F931F93CF93DF93182F55
:100FC000062F811101C01BC08FE190E00E94070D28
:100FD000EC010097A1F0109FC001112401960E941E
:100FE000070D99838883892B39F01B8F0C8F61E063
:100FF000CE010E949C0705C0CE010E94390DC0E0C1
:10100000D0E0CE01DF91CF911F910F910895BF9253
:10101000CF92DF92EF92FF920F931F93CF93DF93C4
:1010200000D000D01F92CDB7DEB78C016B015D837D
:101030004C83B22E20E07C0188E0E80EF11C01C058
:1010400021E00FB6F8940F92F801928D838D9817D6
:1010500018F0F2E0BF1215C04B2DB601C8010E9476
:10106000F506F8018189882341F0C80141960E9464
:101070007906813011F40E94170E0F900FBE81E0A7
:101080004FC08C819D81892B19F40F900FBE47C0F2
:10109000211104C0CE0101960E94BA060F900FBE26
:1010A0000E9431040FB6F8940F92F801858D8F3F9E
:1010B00009F4158EF801868D8F3F09F4168E0F9076
:1010C0000FBEBE016C5F7F4FCE0101960E94C50628
:1010D000811120C00FB6F8940F92F801928D0F90F5
:1010E0000FBEF801838D98130FC06C817D81C701FD
:1010F0000E945D06C8010E945E070E9415058111CD
:101100009FCF0E94170E9CCFC8010E945E070E94CD
:10111000150596CFC8010E945E070E94150580E064
:101120000F900F900F900F900F90DF91CF911F9124
:101130000F91FF90EF90DF90CF90BF9008950F93A5
:101140001F93CF93DF93EC018A019A8D8B8D9817B3
:1011500010F02230E9F4422FCE010E94F5068E8D68
:101160008F3F89F48989811101C010C0CE01419659
:101170000E947906882351F00115110539F081E0AC
:10118000F801808306C08E8D8F5F8E8F81E001C055
:1011900080E0DF91CF911F910F910895BF92CF9280
:1011A000DF92EF92FF920F931F93CF93DF9300D0C4
:1011B00000D01F92CDB7DEB78C016B015D834C83ED
:1011C000B22E30E07C0181E1E80EF11C01C031E07B
:1011D0000FB6F8940F92F801828D882339F1E680DA
:1011E000F780B601C8010E943E07F801B1100FC098
:1011F000828D8150828F80858823A1F0C801089656
:101200000E947906813071F40E94170E0BC0F7829C
:10121000E6828189882331F0C80141960E947906CF
:101220008111F2CF0F900FBE81E04DC08C819D8166
:10123000892B19F40F900FBE45C0311104C0CE01A7
:1012400001960E94BA060F900FBE0E9431040FB69D
:10125000F8940F92F801858D8F3F09F4158EF801EF
:10126000868D8F3F09F4168E0F900FBEBE016C5F06
:101270007F4FCE0101960E94C50681111EC00FB698
:10128000F8940F92F801828D0F900FBE81110FC05C
:101290006C817D81C7010E945D06C8010E945E07C6
:1012A0000E941505811193CF0E94170E90CFC8019F
:1012B0000E945E070E9415058ACFC8010E945E0742
:1012C0000E94150580E00F900F900F900F900F90E7
:1012D000DF91CF911F910F91FF90EF90DF90CF9012
:1012E000BF9008950F931F93CF93DF93EC018A0172
:1012F0008A8D8823F9F0CE010E943E078A8D8150A5
:101300008A8F8D8D8F3F89F48885811101C010C02F
:10131000CE0108960E947906882351F00115110527
:1013200039F081E0F801808306C08D8D8F5F8D8F4D
:1013300081E001C080E0DF91CF911F910F9108956E
:101340000F931F93CF93DF93EC018A8D882349F08D
:101350000E811F81CE010E943E071F830E8381E014
:1013600001C080E0DF91CF911F910F9108950FB6DA
:10137000F8940F92FC01828D0F900FBE08950FB666
:10138000F8940F92FC01228D0F900FBEFC01838D0B
:10139000821B0895FC01828D0895CF93DF93EC01A9
:1013A000888199810E94390DCE01DF91CF910C94F3
:1013B000390DFC01928D81E0911180E00895FC01CE
:1013C000228D81E0938D291380E00895CF93DF93E0
:1013D000EC01CA01F8940FB6F8940F923A8D2B8D58
:1013E0000F900FBE32130DC0009741F0BE01685F31
:1013F0007F4F0E94BF0B78948CEF1BC0789480E0E5
:1014000018C07894F8948A8D821788F440E0CE0151
:101410000E94F5068989811102C081E009C0CE01D0
:1014200041960E94E20C8823C1F38BEF01C080E05B
:101430007894DF91CF910895CF93DF93EC01CB01A6
:10144000F8942A8D21110FC04115510549F0BE01B4
:101450006F5E7F4FCA010E94BF0B78948CEF2FC044
:10146000789480E02CC07894F8942A8D222329F176
:101470004C8D2E813F81240F311D3F832E83EA81C5
:10148000FB812E173F0720F0288139813F832E836F
:101490002A8D21502A8F6E817F8150E00E94571142
:1014A0008885811102C081E009C0CE0108960E94A2
:1014B000E20C8823C1F38BEF01C080E07894DF91C8
:1014C000CF9108951F93CF93DF93EC01142F9A8D42
:1014D0008B8D981788F440E0CE010E94F50611111B
:1014E0000BC08989882341F0CE0141960E94E20C0D
:1014F00011E0811101C010E0812FDF91CF911F9188
:1015000008950F931F93CF93DF93EC01CB018A01D2
:101510002A8D222359F14C8D2E813F81240F311DBC
:101520003F832E83EA81FB812E173F0720F028811D
:1015300039813F832E832A8D21502A8F6E817F81AE
:1015400050E00E945711F8018081882311F081E05A
:101550000EC088858823D9F3CE0108960E94E20C3C
:101560008823A9F381E0F801808301C080E0DF9146
:10157000CF911F910F910895FC010396928381836F
:101580002FEF3FEF34832383968385839087878370
:1015900010820895FC01118610860895CF93DF9381
:1015A0009C01FB01DC011196CD91DC911297D38354
:1015B000C2838C819D81958384838C819D81DC0194
:1015C00013967C936E9312977D836C83318720876B
:1015D000F90180818F5F8083DF91CF9108950F9310
:1015E0001F93CF93DF938C01FB01808191818F3F0B
:1015F0002FEF920721F4E801AF81B8850EC0D80122
:10160000139601C0D90112962D913C911397E901CF
:101610004881598184179507A8F712968D919C915E
:10162000139793838283EC01FD83EC83B583A483BA
:101630001396FC93EE93129711870087F80180812F
:101640008F5F8083DF91CF911F910F910895CF938A
:10165000DF93FC01A281B3818481958115969C93CF
:101660008E931497C481D581BB83AA83A085B1854D
:1016700011968D919C9112978E179F0721F41296C7
:10168000DC93CE931197118610868C9181508C93A8
:10169000DF91CF910895DF92EF92FF920F931F9306
:1016A000CF93DF937C01D62E142F8AE190E00E9425
:1016B000070DEC01009709F459C08091A4019091A5
:1016C000A501892B21F5D093A501C093A40187EA38
:1016D00091E00E94BC0A80EB91E00E94BC0A89EB79
:1016E00091E00E94BC0A82EC91E00E94BC0A8BEC63
:1016F00091E00E94BC0A89EB91E09093D501809320
:10170000D40182EC91E09093D7018093D601DD2043
:1017100011F0DD24D394198E188EDE8A1F8BFE0102
:10172000E192F1928F01CF010E94CA0ACE010C967C
:101730000E94CA0AD987C887DB8BCA8B84E090E0F5
:101740008D1991099D878C878E899091A601981794
:1017500010F48093A601F9E08F9FC0011124B80115
:1017600089559E4F0E94CE0A81E001C08FEFDF9124
:10177000CF911F910F91FF90EF90DF9008950F93FD
:101780001F93CF93DF938B01C091D801D091D901E2
:10179000C80FD91F8091A4019091A50102960E94C3
:1017A000270BE091A401F091A501D383C28380911E
:1017B000D8019091D901BF016E5F7F4FC817D9073B
:1017C00028F48091D6019091D70104C08091D40172
:1017D0009091D5010E94EF0A0115110569F0609101
:1017E000A4017091A501645F7F4FC801DF91CF9183
:1017F0001F910F910C94EF0ADF91CF911F910F91E0
:101800000895FF920F931F93CF93DF9399E0F92EE2
:1018100021C0F894E091D001F091D101C681D78127
:10182000CE010C960E94270B78948E010E5F1F4FFD
:10183000C8010E94270B8E899091A601981710F479
:101840008093A601F89EC0011124B80189559E4FCE
:101850000E94CE0A8091CB018111DBCF0E94370418
:101860002091DA013091DB01821B930B9093DD0113
:101870008093DC0189E0F82E53C001969093D90142
:101880008093D801215031093093DD012093DC0190
:10189000892B09F03EC08091D4019091D50120910F
:1018A000D6013091D7013093D5012093D401909384
:1018B000D7018093D6012DC00580F681E02DC68129
:1018C000D7812091D8013091D9018A819B81281735
:1018D000390730F1F8948E010E5F1F4FC8010E9446
:1018E000270B8C899D89892B21F0CE010C960E94B3
:1018F000270B78948E899091A601981710F4809305
:10190000A601F89EC0011124B80189559E4F0E947E
:10191000CE0AE091D401F091D50180818111CCCF24
:101920002091DC013091DD018091D8019091D901A5
:101930002115310509F0A1CF9093DB018093DA01E5
:101940008091A60129E006C0811103C01092A60172
:1019500033C08150289FF0011124E955FE4F90813A
:10196000992391F38093A601A181B28112960D90E3
:10197000BC91A02DB283A183CF010396A817B9070C
:1019800031F412968D919C911397928381830180FB
:10199000F281E02D868197819093A5018093A40127
:1019A000DC01ED91FC91119757966C91DF91CF91ED
:1019B0001F910F91FF900994DF91CF911F910F918B
:1019C000FF9008950F931F93CF93DF93DC0115963B
:1019D000ED91FC911697C681D7818E01045F1F4F50
:1019E000C8010E94270BB8018BEC91E00E94CE0A3F
:1019F000E091A401F091A50181E02E899689291733
:101A000008F480E0DF91CF911F910F910895CF935B
:101A1000DF93EC010E9431048091DE019091DF019F
:101A2000892B31F481EE91E09093DF018093DE0108
:101A30002091BC073091BD07CE01820F931F8B3DD3
:101A400045E0940770F42817390758F4C091DE0177
:101A5000D091DF01C20FD31F9093BD078093BC07C5
:101A600002C0C0E0D0E00E941505CE01DF91CF9109
:101A7000089508951092BD071092BC0708952BEDAC
:101A800035E08091BC079091BD07281B390BC90137
:101A9000089531E1FC013083319722E22083FC017B
:101AA0003297A3E3A083FC0133976083FC01349752
:101AB0007083FC0135971082FC01369760E86083E3
:101AC000FC0137971082FC01389762E06083FC01CB
:101AD000399763E06083FC013A9764E06083FC011E
:101AE0003B9765E06083FC013C9766E06083FC0106
:101AF0003D9767E06083FC013E9768E06083FC01EE
:101B00003F9769E06083FC01709760E16083FC01AE
:101B100071973083FC01729732E13083FC01739737
:101B200033E13083FC01749734E13083FC01759715
:101B300035E13083FC01769736E13083FC017797FD
:101B400037E13083FC01789738E13083FC017997E5
:101B500039E13083FC017A9730E23083FC017B97D6
:101B600031E23083FC017C972083FC017D9723E2E6
:101B70002083FC017E974083FC017F975083FC010A
:101B8000B09726E22083FC01B19727E22083FC0175
:101B9000B29728E22083FC01B39729E22083FC015D
:101BA000B49720E32083FC01B59721E320839C01B7
:101BB00026523109C90108951092890089EF809356
:101BC00088008BE080938100EFE6F0E08081826006
:101BD0008083A0914B01B0914C01CD91CDBFDD919F
:101BE000DEBFFF91EF91DF91CF91BF91AF919F91B8
:101BF0008F917F916F915F914F913F912F911F91A5
:101C00000F91FF90EF90DF90CF90BF90AF909F909B
:101C10008F907F906F905F904F903F902F901F908C
:101C20000F900FBE0F90089581E0089508950F92D0
:101C30000FB6F8940F921F9211242F923F924F9259
:101C40005F926F927F928F929F92AF92BF92CF924C
:101C5000DF92EF92FF920F931F932F933F934F9337
:101C60005F936F937F938F939F93AF93BF93CF9324
:101C7000DF93EF93FF93A0914B01B0914C010DB610
:101C80000D920EB60D920E941D06A0914B01B091CF
:101C90004C01CD91CDBFDD91DEBFFF91EF91DF9182
:101CA000CF91BF91AF919F918F917F916F915F91F4
:101CB0004F913F912F911F910F91FF90EF90DF90E7
:101CC000CF90BF90AF909F908F907F906F905F90DC
:101CD0004F903F902F901F900F900FBE0F90089540
:101CE0000F920FB6F8940F921F9211242F923F92E9
:101CF0004F925F926F927F928F929F92AF92BF921C
:101D0000CF92DF92EF92FF920F931F932F933F9307
:101D10004F935F936F937F938F939F93AF93BF93F3
:101D2000CF93DF93EF93FF93A0914B01B0914C01C0
:101D30000DB60D920EB60D920E944B0481110E94B9
:101D40001D06A0914B01B0914C01CD91CDBFDD910D
:101D5000DEBFFF91EF91DF91CF91BF91AF919F9146
:101D60008F917F916F915F914F913F912F911F9133
:101D70000F91FF90EF90DF90CF90BF90AF909F902A
:101D80008F907F906F905F904F903F902F901F901B
:101D90000F900FBE0F9008950E94700E18950F932C
:101DA0001F93CF93DF931F92CDB7DEB78C01FC0159
:101DB000808D918D8A3BF1E09F07B1F08B3B21E054
:101DC000920751F1892B61F54FEF5FEFBE016F5F15
:101DD0007F4F8091BE079091BF070E941C0A8C3FE5
:101DE00071F48AEB91E00FC040E050E0BE016F5FFC
:101DF0007F4F8091BE079091BF070E941C0A8B3FC6
:101E000031F48BEB91E0F801918F808F09C0813024
:101E100019F010920301D8CF89810E94E800D4CF35
:101E20000F90DF91CF911F910F9108950F931F9302
:101E3000CF93DF931F92CDB7DEB78C016983FC018E
:101E4000208D318D2A37F1E03F07D9F018F4232B8C
:101E500041F03EC02B37E1E03E0739F12E383140EA
:101E6000B9F540E050E0BE016F5F7F4F8091BE0743
:101E70009091BF070E94E6098C3F71F48AE791E0D8
:101E800024C040E050E0BE016F5F7F4F8091BE07ED
:101E90009091BF070E94E6098B3F19F48BE791E010
:101EA00014C0813011F010920301E981F0E0EE0FCF
:101EB000FF1FEC5FFE4F80819181009721F060E071
:101EC00070E00E94BF0B8EE891E0F801918F808F47
:101ED0000F90DF91CF911F910F910895CF93DF93D2
:101EE000D82F893008F0D8E040E061E081E00E941E
:101EF000DB079093BF078093BE07892B49F413C07B
:101F00004C2F60E086E19FE00E944B0BCF5F01C049
:101F1000C0E0CD13F5CF40E061E08FEC9EE0DF91B3
:101F2000CF910C944B0BDF91CF91089580910301D9
:101F30000895CF93DF9300D000D0CDB7DEB75C011A
:101F400000E010E08BE7C82ED12CE12CF12C97E0BB
:101F5000492E512C612C712C9924939402C001E0DC
:101F600010E0C982DA82EB82FC8289819A81AB819E
:101F7000BC81895B9B46AC4FBF4F89839A83AB83FF
:101F8000BC8329813A814B815C81ADEFBFEF0E9418
:101F9000FD1069837A838B839C8369817A818B812D
:101FA0009C81A30192010E94021129833A834B83F1
:101FB0005C8389819A81AB81BC818B319747AE4F1D
:101FC000BF4F69F60115110551F60FB6F8940F923F
:101FD000F50190820F900FBEC4CFAF92BF92CF9207
:101FE000DF92EF92FF920F93A12CB12CC12CD12C38
:101FF000E12CF12C082F20EC37E045E550E061E3BF
:1020000071E089E99FE00E94B4020F91FF90EF9088
:10201000DF90CF90BF90AF9008959091C00710923D
:10202000C00781E0911101C080E00895CF93DF9354
:1020300000D0CDB7DEB78C011A821982F12CE12CC9
:1020400023C020E040E050E0BE016F5F7F4FF80109
:10205000808191810E940708813099F4E1100AC0C3
:102060000FB6F8940F928091C1078F5F8093C107DC
:102070000F900FBE29813A812F5F3F4F3A8329830A
:1020800002C0EE24E394F394F2E0FF15D4F688EC5A
:1020900090E00E94BD05F12CD4CFCF93DF9300D008
:1020A000CDB7DEB77C01D12C00E010E024C020E0E9
:1020B00040E050E0BE016F5F7F4FF701808191816A
:1020C0000E94CE088130B9F489819A8180179107E6
:1020D00069F4D1100DC00FB6F8940F922091C20789
:1020E0002F5F2093C2070F900FBE02C0DD24D39450
:1020F0008C010F5F1F4FF701808191810E94B7090A
:102100008111D5CF84EB90E00E94BD05F4CFAF9252
:10211000BF92CF92DF92EF92FF920F93CF93C82F8F
:1021200040E062E08AE00E94DB079093C40780935E
:10213000C307A12CB12CC12CD12CE12CF12C0C2FDC
:1021400023EC37E045E550E069E371E08DE490E190
:102150000E94B40223EC37E045E550E061E471E011
:1021600086E190E10E94B402CF910F91FF90EF9031
:10217000DF90CF90BF90AF9008958091C2078823E1
:1021800029F09091C10781E0911101C080E0109287
:10219000C2071092C1070895AF92BF92CF92DF920B
:1021A000EF92FF920F93A12CB12CC12CD12CE12CDA
:1021B000F12C01E020E030E040EF50E064E171E01C
:1021C00083E590E00E94B40220E030E040EF50E070
:1021D0006BE171E083E790E00E94B4020E94FA0391
:1021E00080E090E00F91FF90EF90DF90CF90BF9054
:1021F000AF900895B7FF0C941E110E941E11821B10
:10220000930B0895052E97FB16F4009407D057FD05
:102210000DD00E94291107FC09D07EF4909580957D
:10222000709561957F4F8F4F9F4F089550954095C2
:10223000309521953F4F4F4F5F4F08950E944B11AE
:10224000A59F900DB49F900DA49F800D911D11240A
:102250000895A1E21A2EAA1BBB1BFD010DC0AA1FE7
:10226000BB1FEE1FFF1FA217B307E407F50720F0FF
:10227000A21BB30BE40BF50B661F771F881F991F7A
:102280001A9469F760957095809590959B01AC01C3
:10229000BD01CF010895A29FB001B39FC001A39FCC
:1022A00001D0B29F700D811D1124911D0895FB0175
:1022B000DC0102C001900D9241505040D8F70895C2
:1022C000DC0101C06D9341505040E0F70895F8944F
:0222D000FFCF3E
:1022D200FFFFFF019600C800FA002C015E01900189
:1022E200C201F4015461736B2031005461736B209D
:1022F20032005265673100526567320049444C45ED
:1023020000496E744D6174680051436F6E734E42A2
:0A231200005150726F644E4200004B
:00000001FF
